{
  "_format": "hh-sol-artifact-1",
  "contractName": "ForceBridge",
  "sourceName": "contracts/ForceBridge.sol",
  "abi": [
    {
      "inputs": [
        {
          "internalType": "address[]",
          "name": "validators",
          "type": "address[]"
        },
        {
          "internalType": "uint256",
          "name": "multisigThreshold",
          "type": "uint256"
        }
      ],
      "stateMutability": "nonpayable",
      "type": "constructor"
    },
    {
      "anonymous": false,
      "inputs": [
        {
          "indexed": true,
          "internalType": "address",
          "name": "token",
          "type": "address"
        },
        {
          "indexed": false,
          "internalType": "bytes",
          "name": "l1Address",
          "type": "bytes"
        }
      ],
      "name": "CreateGwERC20",
      "type": "event"
    },
    {
      "anonymous": false,
      "inputs": [
        {
          "indexed": true,
          "internalType": "address",
          "name": "token",
          "type": "address"
        },
        {
          "indexed": true,
          "internalType": "address",
          "name": "sender",
          "type": "address"
        },
        {
          "indexed": false,
          "internalType": "uint256",
          "name": "lockedAmount",
          "type": "uint256"
        },
        {
          "indexed": false,
          "internalType": "bytes",
          "name": "recipientLockscript",
          "type": "bytes"
        },
        {
          "indexed": false,
          "internalType": "bytes",
          "name": "sudtExtraData",
          "type": "bytes"
        }
      ],
      "name": "Locked",
      "type": "event"
    },
    {
      "anonymous": false,
      "inputs": [
        {
          "indexed": true,
          "internalType": "address",
          "name": "token",
          "type": "address"
        },
        {
          "indexed": true,
          "internalType": "address",
          "name": "recipient",
          "type": "address"
        },
        {
          "indexed": true,
          "internalType": "address",
          "name": "sender",
          "type": "address"
        },
        {
          "indexed": false,
          "internalType": "uint256",
          "name": "receivedAmount",
          "type": "uint256"
        },
        {
          "indexed": false,
          "internalType": "bytes",
          "name": "ckbTxHash",
          "type": "bytes"
        }
      ],
      "name": "Unlocked",
      "type": "event"
    },
    {
      "inputs": [],
      "name": "CHANGE_VALIDATORS_TYPEHASH",
      "outputs": [
        {
          "internalType": "bytes32",
          "name": "",
          "type": "bytes32"
        }
      ],
      "stateMutability": "view",
      "type": "function"
    },
    {
      "inputs": [],
      "name": "DOMAIN_SEPARATOR",
      "outputs": [
        {
          "internalType": "bytes32",
          "name": "",
          "type": "bytes32"
        }
      ],
      "stateMutability": "view",
      "type": "function"
    },
    {
      "inputs": [],
      "name": "NAME_712",
      "outputs": [
        {
          "internalType": "string",
          "name": "",
          "type": "string"
        }
      ],
      "stateMutability": "view",
      "type": "function"
    },
    {
      "inputs": [],
      "name": "SIGNATURE_SIZE",
      "outputs": [
        {
          "internalType": "uint256",
          "name": "",
          "type": "uint256"
        }
      ],
      "stateMutability": "view",
      "type": "function"
    },
    {
      "inputs": [],
      "name": "UNLOCK_TYPEHASH",
      "outputs": [
        {
          "internalType": "bytes32",
          "name": "",
          "type": "bytes32"
        }
      ],
      "stateMutability": "view",
      "type": "function"
    },
    {
      "inputs": [],
      "name": "VALIDATORS_SIZE_LIMIT",
      "outputs": [
        {
          "internalType": "uint256",
          "name": "",
          "type": "uint256"
        }
      ],
      "stateMutability": "view",
      "type": "function"
    },
    {
      "inputs": [
        {
          "internalType": "address[]",
          "name": "validators",
          "type": "address[]"
        },
        {
          "internalType": "uint256",
          "name": "multisigThreshold",
          "type": "uint256"
        },
        {
          "internalType": "uint256",
          "name": "nonce",
          "type": "uint256"
        },
        {
          "internalType": "bytes",
          "name": "signatures",
          "type": "bytes"
        }
      ],
      "name": "changeValidators",
      "outputs": [],
      "stateMutability": "nonpayable",
      "type": "function"
    },
    {
      "inputs": [
        {
          "internalType": "bytes",
          "name": "l1Address",
          "type": "bytes"
        },
        {
          "internalType": "bytes",
          "name": "tokenArgs",
          "type": "bytes"
        }
      ],
      "name": "createGwERC20",
      "outputs": [
        {
          "internalType": "address",
          "name": "addr",
          "type": "address"
        }
      ],
      "stateMutability": "payable",
      "type": "function"
    },
    {
      "inputs": [],
      "name": "latestChangeValidatorsNonce_",
      "outputs": [
        {
          "internalType": "uint256",
          "name": "",
          "type": "uint256"
        }
      ],
      "stateMutability": "view",
      "type": "function"
    },
    {
      "inputs": [],
      "name": "latestUnlockNonce_",
      "outputs": [
        {
          "internalType": "uint256",
          "name": "",
          "type": "uint256"
        }
      ],
      "stateMutability": "view",
      "type": "function"
    },
    {
      "inputs": [
        {
          "internalType": "bytes",
          "name": "recipientLockscript",
          "type": "bytes"
        },
        {
          "internalType": "bytes",
          "name": "sudtExtraData",
          "type": "bytes"
        }
      ],
      "name": "lockETH",
      "outputs": [],
      "stateMutability": "payable",
      "type": "function"
    },
    {
      "inputs": [
        {
          "internalType": "address",
          "name": "token",
          "type": "address"
        },
        {
          "internalType": "uint256",
          "name": "amount",
          "type": "uint256"
        },
        {
          "internalType": "bytes",
          "name": "recipientLockscript",
          "type": "bytes"
        },
        {
          "internalType": "bytes",
          "name": "sudtExtraData",
          "type": "bytes"
        }
      ],
      "name": "lockToken",
      "outputs": [],
      "stateMutability": "nonpayable",
      "type": "function"
    },
    {
      "inputs": [],
      "name": "multisigThreshold_",
      "outputs": [
        {
          "internalType": "uint256",
          "name": "",
          "type": "uint256"
        }
      ],
      "stateMutability": "view",
      "type": "function"
    },
    {
      "inputs": [
        {
          "components": [
            {
              "internalType": "address",
              "name": "token",
              "type": "address"
            },
            {
              "internalType": "address",
              "name": "recipient",
              "type": "address"
            },
            {
              "internalType": "uint256",
              "name": "amount",
              "type": "uint256"
            },
            {
              "internalType": "bytes",
              "name": "ckbTxHash",
              "type": "bytes"
            }
          ],
          "internalType": "struct ForceBridge.UnlockRecord[]",
          "name": "records",
          "type": "tuple[]"
        },
        {
          "internalType": "uint256",
          "name": "nonce",
          "type": "uint256"
        },
        {
          "internalType": "bytes",
          "name": "signatures",
          "type": "bytes"
        }
      ],
      "name": "unlock",
      "outputs": [],
      "stateMutability": "nonpayable",
      "type": "function"
    },
    {
      "inputs": [
        {
          "internalType": "bytes32",
          "name": "msgHash",
          "type": "bytes32"
        },
        {
          "internalType": "bytes",
          "name": "signatures",
          "type": "bytes"
        },
        {
          "internalType": "uint256",
          "name": "threshold",
          "type": "uint256"
        }
      ],
      "name": "validatorsApprove",
      "outputs": [],
      "stateMutability": "view",
      "type": "function"
    }
  ],
  "bytecode": "0x60806040523480156200001157600080fd5b506040516200393f3803806200393f833981016040819052620000349162000352565b604080518082018252600c81526b466f7263652042726964676560a01b602091820152815180830190925260018252603160f81b9101527f710a8ed36eae46ded8818e1199a40714204a74b9b1f4e89b3a22651c1d11cbd760048190557fc89efdaa54c0f20c7adf612882df0950f5a951637e0307cdcb4c672f298b8bc660058190557f8b73c3c69bb8fe3d512ecc4cf759cc79239f7b179b0ffacaa9a75d522b39400f466003556200012d818484600083838346604080516020810195909552840192909252606083015260808201523060a082015260c0016040516020818303038152906040528051906020012090509392505050565b60025560068190558451620001895760405162461bcd60e51b815260206004820152601360248201527f76616c696461746f727320617265206e6f6e650000000000000000000000000060448201526064015b60405180910390fd5b60008411620001db5760405162461bcd60e51b815260206004820152601960248201527f696e76616c6964206d756c74697369675468726573686f6c6400000000000000604482015260640162000180565b6032855111156200023e5760405162461bcd60e51b815260206004820152602660248201527f6e756d626572206f662076616c696461746f7273206578636565647320746865604482015265081b1a5b5a5d60d21b606482015260840162000180565b845162000253906001906020880190620002b4565b508451841115620002a75760405162461bcd60e51b815260206004820152601960248201527f696e76616c6964206d756c74697369675468726573686f6c6400000000000000604482015260640162000180565b5050506000555062000443565b8280548282559060005260206000209081019282156200030c579160200282015b828111156200030c57825182546001600160a01b0319166001600160a01b03909116178255602090920191600190910190620002d5565b506200031a9291506200031e565b5090565b5b808211156200031a57600081556001016200031f565b80516001600160a01b03811681146200034d57600080fd5b919050565b6000806040838503121562000365578182fd5b82516001600160401b03808211156200037c578384fd5b818501915085601f83011262000390578384fd5b8151602082821115620003a757620003a76200042d565b808202604051601f19603f83011681018181108682111715620003ce57620003ce6200042d565b604052838152828101945085830182870184018b1015620003ed578889fd5b8896505b848710156200041a57620004058162000335565b865260019690960195948301948301620003f1565b5097909101519698969750505050505050565b634e487b7160e01b600052604160045260246000fd5b6134ec80620004536000396000f3fe6080604052600436106100e85760003560e01c80638c8ca33c1161008a578063dd209aa911610059578063dd209aa91461025d578063ea3cbb4214610288578063fa9c67f3146102a8578063fd4e17aa146102be576100e8565b80638c8ca33c146101e0578063a406ad9a14610214578063a6c0343714610227578063d36394b01461023d576100e8565b80632da5351c116100c65780632da5351c1461017d578063308ff0c9146101a05780633644e515146101b55780634592329b146101ca576100e8565b8063052b9e5c146100ed57806314f9ad3e1461010f5780632187e8f91461012f575b600080fd5b3480156100f957600080fd5b5061010d610108366004611318565b6102f2565b005b34801561011b57600080fd5b5061010d61012a36600461145c565b6103fc565b34801561013b57600080fd5b506101676040518060400160405280600c81526020016b466f7263652042726964676560a01b81525081565b60405161017491906117a8565b60405180910390f35b34801561018957600080fd5b50610192603281565b604051908152602001610174565b3480156101ac57600080fd5b50610192604181565b3480156101c157600080fd5b5061019261070d565b3480156101d657600080fd5b5061019260085481565b3480156101ec57600080fd5b506101927ff1c18f82536658c0cb1a208d4a52b9915dc9e75640ed0daf3a6be45d02ca5c9f81565b61010d610222366004611575565b61071d565b34801561023357600080fd5b5061019260005481565b34801561024957600080fd5b5061010d610258366004611393565b6107b2565b61027061026b366004611575565b610b03565b6040516001600160a01b039091168152602001610174565b34801561029457600080fd5b5061010d6102a3366004611527565b610be8565b3480156102b457600080fd5b5061019260075481565b3480156102ca57600080fd5b506101927fd2cedd075bf1780178b261ac9c9000261e7fd88d66f6309124bddf24f5d953f881565b600083116103475760405162461bcd60e51b815260206004820152601f60248201527f616d6f756e742073686f756c642062652067726561746572207468616e20300060448201526064015b60405180910390fd5b6040516374f4f54760e01b8152336004820152602481018490526001600160a01b038516906374f4f54790604401600060405180830381600087803b15801561038f57600080fd5b505af11580156103a3573d6000803e3d6000fd5b50505050336001600160a01b0316846001600160a01b03167f6aee94645d3f2b304035eced96277957513be5777c155afe6abb6c2285db7ad38585856040516103ee93929190611803565b60405180910390a350505050565b82600754146104445760405162461bcd60e51b81526020600482015260146024820152731d5b9b1bd8dac81b9bdb98d9481a5b9d985b1a5960621b604482015260640161033e565b61044f836001610ef7565b600755600061045c610f5b565b604051610493907ff1c18f82536658c0cb1a208d4a52b9915dc9e75640ed0daf3a6be45d02ca5c9f908990899089906020016116ab565b604051602081830303815290604052805190602001206040516020016104d092919061190160f01b81526002810192909252602282015260420190565b6040516020818303038152906040528051906020012090506105298184848080601f0160208091040260200160405190810160405280939291908181526020018383808284376000920182905250549250610be8915050565b60005b85811015610704573687878381811061055557634e487b7160e01b600052603260045260246000fd5b90506020028101906105679190611884565b9050604081013561057857506106f2565b600061058760208301836112fe565b6001600160a01b031614156105e8576105a660408201602083016112fe565b6001600160a01b03166108fc82604001359081150290604051600060405180830381858888f193505050501580156105e2573d6000803e3d6000fd5b50610676565b6105f560208201826112fe565b6001600160a01b0316638c2a993e61061360408401602085016112fe565b604080516001600160e01b031960e085901b1681526001600160a01b0390921660048301528401356024820152604401600060405180830381600087803b15801561065d57600080fd5b505af1158015610671573d6000803e3d6000fd5b505050505b3361068760408301602084016112fe565b6001600160a01b031661069d60208401846112fe565b6001600160a01b03167fa68ce84c815a939744a011df05adcf79b74994aada52c5810979c254042f553d60408501356106d96060870187611838565b6040516106e8939291906117e9565b60405180910390a4505b806106fc81611944565b91505061052c565b50505050505050565b6000610717610f5b565b90505b90565b6000341161076d5760405162461bcd60e51b815260206004820152601f60248201527f616d6f756e742073686f756c642062652067726561746572207468616e203000604482015260640161033e565b60405133906000907f6aee94645d3f2b304035eced96277957513be5777c155afe6abb6c2285db7ad3906107a690349087908790611803565b60405180910390a35050565b60085482146108035760405162461bcd60e51b815260206004820152601e60248201527f6368616e676556616c696461746f7273206e6f6e636520696e76616c69640000604482015260640161033e565b61080e826001610ef7565b60085583516108555760405162461bcd60e51b815260206004820152601360248201527276616c696461746f727320617265206e6f6e6560681b604482015260640161033e565b600083116108a15760405162461bcd60e51b81526020600482015260196024820152781a5b9d985b1a59081b5d5b1d1a5cda59d51a1c995cda1bdb19603a1b604482015260640161033e565b6032845111156109025760405162461bcd60e51b815260206004820152602660248201527f6e756d626572206f662076616c696461746f7273206578636565647320746865604482015265081b1a5b5a5d60d21b606482015260840161033e565b835183111561094f5760405162461bcd60e51b81526020600482015260196024820152781a5b9d985b1a59081b5d5b1d1a5cda59d51a1c995cda1bdb19603a1b604482015260640161033e565b60005b8451811015610a3f5760006109688260016118d4565b90505b8551811015610a2c5785818151811061099457634e487b7160e01b600052603260045260246000fd5b60200260200101516001600160a01b03168683815181106109c557634e487b7160e01b600052603260045260246000fd5b60200260200101516001600160a01b03161415610a1a5760405162461bcd60e51b815260206004820152601360248201527272657065617465642076616c696461746f727360681b604482015260640161033e565b80610a2481611944565b91505061096b565b5080610a3781611944565b915050610952565b506000610a4a610f5b565b604051610a81907fd2cedd075bf1780178b261ac9c9000261e7fd88d66f6309124bddf24f5d953f89088908890889060200161164b565b60405160208183030381529060405280519060200120604051602001610abe92919061190160f01b81526002810192909252602282015260420190565b604051602081830303815290604052805190602001209050610ae38183600054610be8565b8451610af69060019060208801906111f5565b5050506000919091555050565b60008083805190602001209050610b3d348260405180602001610b259061125a565b601f1982820381018352601f90910116604052610fc7565b60405163263db5cf60e01b81529092506001600160a01b0383169063263db5cf90610b6e90879087906004016117bb565b600060405180830381600087803b158015610b8857600080fd5b505af1158015610b9c573d6000803e3d6000fd5b50505050816001600160a01b03167f153a2661f6f4012082e3f16a26e5ea3b175dac4fc02c6695cf75f441c7612b5085604051610bd991906117a8565b60405180910390a25092915050565b60418251610bf6919061195f565b15610c385760405162461bcd60e51b8152602060048201526012602482015271696e76616c6964207369676e61747572657360701b604482015260640161033e565b600060418351610c489190611911565b905081811015610cb35760405162461bcd60e51b815260206004820152603060248201527f6c656e677468206f66207369676e617475726573206d7573742067726561746560448201526f1c881d1a185b881d1a1c995cda1bdb1960821b606482015260840161033e565b600080600080600080600060018054905067ffffffffffffffff811115610cea57634e487b7160e01b600052604160045260246000fd5b604051908082528060200260200182016040528015610d13578160200160208202803683370190505b50905060005b88871015610e9857610d2b8b886110cf565b9197509550935086610d3c81611944565b97505060018c87878760405160008152602001604052604051610d7b949392919093845260ff9290921660208401526040830152606082015260800190565b6020604051602081039080840390855afa158015610d9d573d6000803e3d6000fd5b5050604051601f1901519350506001600160a01b038316610df45760405162461bcd60e51b8152602060048201526011602482015270696e76616c6964207369676e617475726560781b604482015260640161033e565b610dfd8361117d565b60015490915081101580610e355750818181518110610e2c57634e487b7160e01b600052603260045260246000fd5b60200260200101515b15610e3f57610d19565b6001828281518110610e6157634e487b7160e01b600052603260045260246000fd5b9115156020928302919091019091015287610e7b81611944565b985050898810610e9357505050505050505050610ef2565b610d19565b89881015610ee85760405162461bcd60e51b815260206004820152601760248201527f7369676e617475726573206e6f74207665726966696564000000000000000000604482015260640161033e565b5050505050505050505b505050565b6000610f0382846118d4565b905082811015610f555760405162461bcd60e51b815260206004820152601960248201527f4f766572666c6f7720647572696e67206164646974696f6e2e00000000000000604482015260640161033e565b92915050565b6000600354610f674690565b1415610f76575060025461071a565b50600654600454600554604080516020808201959095528082019390935260608301919091524660808301523060a0808401919091528151808403909101815260c09092019052805191012061071a565b6000834710156110195760405162461bcd60e51b815260206004820152601d60248201527f437265617465323a20696e73756666696369656e742062616c616e6365000000604482015260640161033e565b81516110675760405162461bcd60e51b815260206004820181905260248201527f437265617465323a2062797465636f6465206c656e677468206973207a65726f604482015260640161033e565b8282516020840186f590506001600160a01b0381166110c85760405162461bcd60e51b815260206004820152601960248201527f437265617465323a204661696c6564206f6e206465706c6f7900000000000000604482015260640161033e565b9392505050565b60008080806110df856041611925565b8681016020810151604082015160419092015160ff169650945092509050601b84101561111457611111601b856118ec565b93505b8360ff16601b148061112957508360ff16601c145b6111755760405162461bcd60e51b815260206004820152601f60248201527f696e76616c69642076206f66207369676e617475726528722c20732c20762900604482015260640161033e565b509250925092565b6000805b6001548110156111ea57826001600160a01b0316600182815481106111b657634e487b7160e01b600052603260045260246000fd5b6000918252602090912001546001600160a01b031614156111d85790506111f0565b806111e281611944565b915050611181565b50506001545b919050565b82805482825590600052602060002090810192821561124a579160200282015b8281111561124a57825182546001600160a01b0319166001600160a01b03909116178255602090920191600190910190611215565b50611256929150611267565b5090565b611b01806119b683390190565b5b808211156112565760008155600101611268565b80356001600160a01b03811681146111f057600080fd5b600082601f8301126112a3578081fd5b813567ffffffffffffffff8111156112bd576112bd61199f565b6112d0601f8201601f19166020016118a3565b8181528460208386010111156112e4578283fd5b816020850160208301379081016020019190915292915050565b60006020828403121561130f578081fd5b6110c88261127c565b6000806000806080858703121561132d578283fd5b6113368561127c565b935060208501359250604085013567ffffffffffffffff80821115611359578384fd5b61136588838901611293565b9350606087013591508082111561137a578283fd5b5061138787828801611293565b91505092959194509250565b600080600080608085870312156113a8578384fd5b843567ffffffffffffffff808211156113bf578586fd5b818701915087601f8301126113d2578586fd5b81356020828211156113e6576113e661199f565b8082026113f48282016118a3565b8381528281019086840183880185018e101561140e578b8cfd5b8b97505b85881015611437576114238161127c565b835260019790970196918401918401611412565b509950505088013595505060408701359350606087013591508082111561137a578283fd5b600080600080600060608688031215611473578081fd5b853567ffffffffffffffff8082111561148a578283fd5b818801915088601f83011261149d578283fd5b8135818111156114ab578384fd5b60208a8182840286010111156114bf578485fd5b8084019850819750808a0135965060408a01359350828411156114e0578485fd5b838a0193508a601f8501126114f3578485fd5b8335915082821115611503578485fd5b8a81838601011115611513578485fd5b979a96995094975050909401935090919050565b60008060006060848603121561153b578283fd5b83359250602084013567ffffffffffffffff811115611558578283fd5b61156486828701611293565b925050604084013590509250925092565b60008060408385031215611587578182fd5b823567ffffffffffffffff8082111561159e578384fd5b6115aa86838701611293565b935060208501359150808211156115bf578283fd5b506115cc85828601611293565b9150509250929050565b60008284528282602086013780602084860101526020601f19601f85011685010190509392505050565b60008151808452815b8181101561162557602081850181015186830182015201611609565b818111156116365782602083870101525b50601f01601f19169290920160200192915050565b600060808201868352602060808185015281875180845260a0860191508289019350845b818110156116945784516001600160a01b03168352938301939183019160010161166f565b505060408501969096525050506060015292915050565b84815260606020808301829052828201859052600091906080908185018782028601830189865b8a81101561178f57888303607f190184528135368d9003607e190181126116f7578889fd5b8c016001600160a01b038061170b8361127c565b1685528061171a88840161127c565b168588015250604081810135908501528781013536829003601e1901811261174057898afd5b8101803567ffffffffffffffff811115611758578a8bfd5b803603831315611766578a8bfd5b888a87015261177a898701828a85016115d6565b968801969550505091850191506001016116d2565b5050809550505050505082604083015295945050505050565b6000602082526110c86020830184611600565b6000604082526117ce6040830185611600565b82810360208401526117e08185611600565b95945050505050565b6000848252604060208301526117e06040830184866115d6565b60008482526060602083015261181c6060830185611600565b828103604084015261182e8185611600565b9695505050505050565b6000808335601e1984360301811261184e578283fd5b83018035915067ffffffffffffffff821115611868578283fd5b60200191503681900382131561187d57600080fd5b9250929050565b60008235607e19833603018112611899578182fd5b9190910192915050565b604051601f8201601f1916810167ffffffffffffffff811182821017156118cc576118cc61199f565b604052919050565b600082198211156118e7576118e7611973565b500190565b600060ff821660ff84168060ff0382111561190957611909611973565b019392505050565b60008261192057611920611989565b500490565b600081600019048311821515161561193f5761193f611973565b500290565b600060001982141561195857611958611973565b5060010190565b60008261196e5761196e611989565b500690565b634e487b7160e01b600052601160045260246000fd5b634e487b7160e01b600052601260045260246000fd5b634e487b7160e01b600052604160045260246000fdfe608060405234801561001057600080fd5b5060ce805460ff19166001179055611ad48061002d6000396000f3fe608060405234801561001057600080fd5b50600436106101375760003560e01c806370a08231116100b857806395d89b411161007c57806395d89b4114610286578063a457c2d71461028e578063a9059cbb146102a1578063c2eeeebd146102b4578063d505accf146102bc578063dd62ed3e146102cf57610137565b806370a082311461020a57806374f4f5471461021d5780637ecebe00146102305780638c2a993e146102435780638fa74a0e1461025657610137565b8063313ce567116100ff578063313ce567146101b75780633644e515146101d157806339509351146101d95780634000aea0146101ec5780636f791d29146101ff57610137565b806306fdde031461013c578063095ea7b31461015a57806318160ddd1461017d57806323b872dd1461018f578063263db5cf146101a2575b600080fd5b6101446102e2565b6040516101519190611924565b60405180910390f35b61016d610168366004611774565b610307565b6040519015158152602001610151565b6035545b604051908152602001610151565b61016d61019d3660046116cd565b61031f565b6101b56101b03660046117f2565b610343565b005b6101bf6103c4565b60405160ff9091168152602001610151565b6101816103e2565b61016d6101e7366004611774565b6103ec565b61016d6101fa36600461179d565b61040e565b60ce5460ff1661016d565b61018161021836600461167a565b61047a565b6101b561022b366004611774565b610499565b61018161023e36600461167a565b6104fa565b6101b5610251366004611774565b61051a565b60cc5461026e9061010090046001600160a01b031681565b6040516001600160a01b039091168152602001610151565b610144610572565b61016d61029c366004611774565b610593565b61016d6102af366004611774565b61060e565b61014461061c565b6101b56102ca366004611708565b6106aa565b6101816102dd36600461169b565b61080e565b60cf54606090610100900460ff16156102fa57600080fd5b610302610839565b905090565b6000336103158185856108cb565b5060019392505050565b60003361032d8582856109f0565b610338858585610a6a565b506001949350505050565b60008060008380602001905181019061035c9190611853565b9194509250905060018080610374868686338c610c15565b6040805160608101825291158083529315602083018190529215910181905260cf805460ff191690931761ff0019166101009092029190911762ff00001916620100009091021790555050505050565b60cf5460009060ff16156103d757600080fd5b60cc5460ff16610302565b6000610302610cf0565b6000336103158185856103ff838361080e565b61040991906119f4565b6108cb565b600061041a848461060e565b50836001600160a01b0316336001600160a01b03167fe19260aff97b920c7df27010903aeb9c8d2be5d310a2c67824cf3f15396e4c168585604051610460929190611982565b60405180910390a3833b1561031557610315848484610d6b565b6001600160a01b0381166000908152603360205260409020545b919050565b60cc5461010090046001600160a01b031633146104ec5760405162461bcd60e51b815260206004820152600c60248201526b4f4e4c595f4741544557415960a01b60448201526064015b60405180910390fd5b6104f68282610dd5565b5050565b6001600160a01b0381166000908152609960205260408120545b92915050565b60cc5461010090046001600160a01b031633146105685760405162461bcd60e51b815260206004820152600c60248201526b4f4e4c595f4741544557415960a01b60448201526064016104e3565b6104f68282610f06565b60cf5460609062010000900460ff161561058b57600080fd5b610302610fc8565b600033816105a1828661080e565b9050838110156106015760405162461bcd60e51b815260206004820152602560248201527f45524332303a2064656372656173656420616c6c6f77616e63652062656c6f77604482015264207a65726f60d81b60648201526084016104e3565b61033882868684036108cb565b600033610315818585610a6a565b60cd805461062990611a44565b80601f016020809104026020016040519081016040528092919081815260200182805461065590611a44565b80156106a25780601f10610677576101008083540402835291602001916106a2565b820191906000526020600020905b81548152906001019060200180831161068557829003601f168201915b505050505081565b834211156106fa5760405162461bcd60e51b815260206004820152601d60248201527f45524332305065726d69743a206578706972656420646561646c696e6500000060448201526064016104e3565b60007f6e71edae12b1b97f4d1f60370fef10105fa2faae0126114a169c64845d6126c98888886107298c610fd7565b6040805160208101969096526001600160a01b0394851690860152929091166060840152608083015260a082015260c0810186905260e001604051602081830303815290604052805190602001209050600061078482610fff565b905060006107948287878761104d565b9050896001600160a01b0316816001600160a01b0316146107f75760405162461bcd60e51b815260206004820152601e60248201527f45524332305065726d69743a20696e76616c6964207369676e6174757265000060448201526064016104e3565b6108028a8a8a6108cb565b50505050505050505050565b6001600160a01b03918216600090815260346020908152604080832093909416825291909152205490565b60606036805461084890611a44565b80601f016020809104026020016040519081016040528092919081815260200182805461087490611a44565b80156108c15780601f10610896576101008083540402835291602001916108c1565b820191906000526020600020905b8154815290600101906020018083116108a457829003601f168201915b5050505050905090565b6001600160a01b03831661092d5760405162461bcd60e51b8152602060048201526024808201527f45524332303a20617070726f76652066726f6d20746865207a65726f206164646044820152637265737360e01b60648201526084016104e3565b6001600160a01b03821661098e5760405162461bcd60e51b815260206004820152602260248201527f45524332303a20617070726f766520746f20746865207a65726f206164647265604482015261737360f01b60648201526084016104e3565b6001600160a01b0383811660008181526034602090815260408083209487168084529482529182902085905590518481527f8c5be1e5ebec7d5bd14f71427d1e84f3dd0314c0f7b2291e5b200ac8c7c3b92591015b60405180910390a3505050565b60006109fc848461080e565b90506000198114610a645781811015610a575760405162461bcd60e51b815260206004820152601d60248201527f45524332303a20696e73756666696369656e7420616c6c6f77616e636500000060448201526064016104e3565b610a6484848484036108cb565b50505050565b6001600160a01b038316610ace5760405162461bcd60e51b815260206004820152602560248201527f45524332303a207472616e736665722066726f6d20746865207a65726f206164604482015264647265737360d81b60648201526084016104e3565b6001600160a01b038216610b305760405162461bcd60e51b815260206004820152602360248201527f45524332303a207472616e7366657220746f20746865207a65726f206164647260448201526265737360e81b60648201526084016104e3565b6001600160a01b03831660009081526033602052604090205481811015610ba85760405162461bcd60e51b815260206004820152602660248201527f45524332303a207472616e7366657220616d6f756e7420657863656564732062604482015265616c616e636560d01b60648201526084016104e3565b6001600160a01b0380851660008181526033602052604080822086860390559286168082529083902080548601905591517fddf252ad1be2c89b69c2b068fc378daa952ba7f163c4a11628f55a4df523b3ef90610c089086815260200190565b60405180910390a3610a64565b6001600160a01b038216610c5d5760405162461bcd60e51b815260206004820152600f60248201526e494e56414c49445f4741544557415960881b60448201526064016104e3565b60cc5461010090046001600160a01b031615610caa5760405162461bcd60e51b815260206004820152600c60248201526b1053149150511657d253925560a21b60448201526064016104e3565b60cc8054610100600160a81b0319166101006001600160a01b038516021790558051610cdd9060cd90602084019061152e565b50610ce9858585611075565b5050505050565b60006103027f8b73c3c69bb8fe3d512ecc4cf759cc79239f7b179b0ffacaa9a75d522b39400f610d1f60655490565b6066546040805160208101859052908101839052606081018290524660808201523060a082015260009060c0016040516020818303038152906040528051906020012090509392505050565b604051635260769b60e11b815283906001600160a01b0382169063a4c0ed3690610d9d903390879087906004016118f4565b600060405180830381600087803b158015610db757600080fd5b505af1158015610dcb573d6000803e3d6000fd5b5050505050505050565b6001600160a01b038216610e355760405162461bcd60e51b815260206004820152602160248201527f45524332303a206275726e2066726f6d20746865207a65726f206164647265736044820152607360f81b60648201526084016104e3565b6001600160a01b03821660009081526033602052604090205481811015610ea95760405162461bcd60e51b815260206004820152602260248201527f45524332303a206275726e20616d6f756e7420657863656564732062616c616e604482015261636560f01b60648201526084016104e3565b6001600160a01b03831660008181526033602090815260408083208686039055603580548790039055518581529192917fddf252ad1be2c89b69c2b068fc378daa952ba7f163c4a11628f55a4df523b3ef91016109e3565b505050565b6001600160a01b038216610f5c5760405162461bcd60e51b815260206004820152601f60248201527f45524332303a206d696e7420746f20746865207a65726f20616464726573730060448201526064016104e3565b8060356000828254610f6e91906119f4565b90915550506001600160a01b0382166000818152603360209081526040808320805486019055518481527fddf252ad1be2c89b69c2b068fc378daa952ba7f163c4a11628f55a4df523b3ef910160405180910390a36104f6565b60606037805461084890611a44565b6001600160a01b03811660009081526099602052604090208054600181018255905b50919050565b600061051461100c610cf0565b8360405161190160f01b6020820152602281018390526042810182905260009060620160405160208183030381529060405280519060200120905092915050565b600080600061105e8787878761119c565b9150915061106b81611260565b5095945050505050565b600054610100900460ff16158080156110955750600054600160ff909116105b806110af5750303b1580156110af575060005460ff166001145b6111125760405162461bcd60e51b815260206004820152602e60248201527f496e697469616c697a61626c653a20636f6e747261637420697320616c72656160448201526d191e481a5b9a5d1a585b1a5e995960921b60648201526084016104e3565b6000805460ff191660011790558015611135576000805461ff0019166101001790555b61113e846113eb565b6111488484611435565b61115182611466565b8015610a64576000805461ff0019169055604051600181527f7f26b83ff96e1f2b6a682f133852f6798a09c465da95921460cefb38474024989060200160405180910390a150505050565b6000807f7fffffffffffffffffffffffffffffff5d576e7357a4501ddfe92f46681b20a08311156111d35750600090506003611257565b6040805160008082526020820180845289905260ff881692820192909252606081018690526080810185905260019060a0016020604051602081039080840390855afa158015611227573d6000803e3d6000fd5b5050604051601f1901519150506001600160a01b03811661125057600060019250925050611257565b9150600090505b94509492505050565b600081600481111561128257634e487b7160e01b600052602160045260246000fd5b141561128d576113e8565b60018160048111156112af57634e487b7160e01b600052602160045260246000fd5b14156112fd5760405162461bcd60e51b815260206004820152601860248201527f45434453413a20696e76616c6964207369676e6174757265000000000000000060448201526064016104e3565b600281600481111561131f57634e487b7160e01b600052602160045260246000fd5b141561136d5760405162461bcd60e51b815260206004820152601f60248201527f45434453413a20696e76616c6964207369676e6174757265206c656e6774680060448201526064016104e3565b600381600481111561138f57634e487b7160e01b600052602160045260246000fd5b14156113e85760405162461bcd60e51b815260206004820152602260248201527f45434453413a20696e76616c6964207369676e6174757265202773272076616c604482015261756560f01b60648201526084016104e3565b50565b600054610100900460ff166114125760405162461bcd60e51b81526004016104e390611937565b6113e881604051806040016040528060018152602001603160f81b8152506114a3565b600054610100900460ff1661145c5760405162461bcd60e51b81526004016104e390611937565b6104f682826114e4565b600054610100900460ff1661148d5760405162461bcd60e51b81526004016104e390611937565b60cc805460ff191660ff92909216919091179055565b600054610100900460ff166114ca5760405162461bcd60e51b81526004016104e390611937565b815160209283012081519190920120606591909155606655565b600054610100900460ff1661150b5760405162461bcd60e51b81526004016104e390611937565b815161151e90603690602085019061152e565b508051610f019060379060208401905b82805461153a90611a44565b90600052602060002090601f01602090048101928261155c57600085556115a2565b82601f1061157557805160ff19168380011785556115a2565b828001600101855582156115a2579182015b828111156115a2578251825591602001919060010190611587565b506115ae9291506115b2565b5090565b5b808211156115ae57600081556001016115b3565b80356001600160a01b038116811461049457600080fd5b600082601f8301126115ee578081fd5b81356116016115fc826119cc565b61199b565b818152846020838601011115611615578283fd5b816020850160208301379081016020019190915292915050565b600082601f83011261163f578081fd5b815161164d6115fc826119cc565b818152846020838601011115611661578283fd5b611672826020830160208701611a18565b949350505050565b60006020828403121561168b578081fd5b611694826115c7565b9392505050565b600080604083850312156116ad578081fd5b6116b6836115c7565b91506116c4602084016115c7565b90509250929050565b6000806000606084860312156116e1578081fd5b6116ea846115c7565b92506116f8602085016115c7565b9150604084013590509250925092565b600080600080600080600060e0888a031215611722578283fd5b61172b886115c7565b9650611739602089016115c7565b95506040880135945060608801359350608088013561175781611a8f565b9699959850939692959460a0840135945060c09093013592915050565b60008060408385031215611786578182fd5b61178f836115c7565b946020939093013593505050565b6000806000606084860312156117b1578283fd5b6117ba846115c7565b925060208401359150604084013567ffffffffffffffff8111156117dc578182fd5b6117e8868287016115de565b9150509250925092565b60008060408385031215611804578182fd5b823567ffffffffffffffff8082111561181b578384fd5b611827868387016115de565b9350602085013591508082111561183c578283fd5b50611849858286016115de565b9150509250929050565b600080600060608486031215611867578283fd5b835167ffffffffffffffff8082111561187e578485fd5b61188a8783880161162f565b9450602086015191508082111561189f578384fd5b506118ac8682870161162f565b92505060408401516118bd81611a8f565b809150509250925092565b600081518084526118e0816020860160208601611a18565b601f01601f19169290920160200192915050565b600060018060a01b03851682528360208301526060604083015261191b60608301846118c8565b95945050505050565b60006020825261169460208301846118c8565b6020808252602b908201527f496e697469616c697a61626c653a20636f6e7472616374206973206e6f74206960408201526a6e697469616c697a696e6760a81b606082015260800190565b60008382526040602083015261167260408301846118c8565b604051601f8201601f1916810167ffffffffffffffff811182821017156119c4576119c4611a79565b604052919050565b600067ffffffffffffffff8211156119e6576119e6611a79565b50601f01601f191660200190565b60008219821115611a1357634e487b7160e01b81526011600452602481fd5b500190565b60005b83811015611a33578181015183820152602001611a1b565b83811115610a645750506000910152565b600281046001821680611a5857607f821691505b60208210811415610ff957634e487b7160e01b600052602260045260246000fd5b634e487b7160e01b600052604160045260246000fd5b60ff811681146113e857600080fdfea26469706673582212205d8c65b3558566d46dbbd0f36bfd55c92fdf56ec26e47e9c139e9f42eb1dbc8f64736f6c63430008020033a2646970667358221220b94616ea07b040cd23dda69075c6c136b262b8317dc2f3f06c2593cc449ec4cf64736f6c63430008020033",
  "linkReferences": {},
  "deployedLinkReferences": {}
}